{
  "contractName": "Faucet",
  "abi": [
    {
      "inputs": [
        {
          "internalType": "address",
          "name": "_token",
          "type": "address"
        },
        {
          "internalType": "uint256",
          "name": "_amount",
          "type": "uint256"
        },
        {
          "internalType": "uint256",
          "name": "_frequency",
          "type": "uint256"
        }
      ],
      "stateMutability": "nonpayable",
      "type": "constructor"
    },
    {
      "anonymous": false,
      "inputs": [
        {
          "indexed": true,
          "internalType": "address",
          "name": "previousOwner",
          "type": "address"
        },
        {
          "indexed": true,
          "internalType": "address",
          "name": "newOwner",
          "type": "address"
        }
      ],
      "name": "OwnershipTransferred",
      "type": "event"
    },
    {
      "anonymous": false,
      "inputs": [
        {
          "indexed": false,
          "internalType": "uint256",
          "name": "_amount",
          "type": "uint256"
        }
      ],
      "name": "funded",
      "type": "event"
    },
    {
      "inputs": [],
      "name": "amount",
      "outputs": [
        {
          "internalType": "uint256",
          "name": "",
          "type": "uint256"
        }
      ],
      "stateMutability": "view",
      "type": "function",
      "constant": true
    },
    {
      "inputs": [],
      "name": "frequency",
      "outputs": [
        {
          "internalType": "uint256",
          "name": "",
          "type": "uint256"
        }
      ],
      "stateMutability": "view",
      "type": "function",
      "constant": true
    },
    {
      "inputs": [],
      "name": "owner",
      "outputs": [
        {
          "internalType": "address",
          "name": "",
          "type": "address"
        }
      ],
      "stateMutability": "view",
      "type": "function",
      "constant": true
    },
    {
      "inputs": [],
      "name": "renounceOwnership",
      "outputs": [],
      "stateMutability": "nonpayable",
      "type": "function"
    },
    {
      "inputs": [],
      "name": "token",
      "outputs": [
        {
          "internalType": "contract IERC20",
          "name": "",
          "type": "address"
        }
      ],
      "stateMutability": "view",
      "type": "function",
      "constant": true
    },
    {
      "inputs": [
        {
          "internalType": "address",
          "name": "newOwner",
          "type": "address"
        }
      ],
      "name": "transferOwnership",
      "outputs": [],
      "stateMutability": "nonpayable",
      "type": "function"
    },
    {
      "inputs": [
        {
          "internalType": "address",
          "name": "_to",
          "type": "address"
        }
      ],
      "name": "fund",
      "outputs": [],
      "stateMutability": "nonpayable",
      "type": "function"
    },
    {
      "inputs": [],
      "name": "balance",
      "outputs": [
        {
          "internalType": "uint256",
          "name": "",
          "type": "uint256"
        }
      ],
      "stateMutability": "view",
      "type": "function",
      "constant": true
    },
    {
      "inputs": [
        {
          "internalType": "uint256",
          "name": "_amount",
          "type": "uint256"
        }
      ],
      "name": "setAmount",
      "outputs": [],
      "stateMutability": "nonpayable",
      "type": "function"
    },
    {
      "inputs": [
        {
          "internalType": "uint256",
          "name": "_frequency",
          "type": "uint256"
        }
      ],
      "name": "setFrequency",
      "outputs": [],
      "stateMutability": "nonpayable",
      "type": "function"
    }
  ],
  "bytecode": "0x608060405234801561001057600080fd5b5060405161084f38038061084f8339818101604052606081101561003357600080fd5b5080516020820151604090920151909190600061004e610109565b600080546001600160a01b0319166001600160a01b0383169081178255604051929350917f8be0079c531659141344cd1fd0a4f28419497f9722a3daafe3b4186f6b6457e0908290a3506001600160a01b0383166100dd5760405162461bcd60e51b81526004018080602001828103825260378152602001806108186037913960400191505060405180910390fd5b600180546001600160a01b0319166001600160a01b03949094169390931790925560025560035561010d565b3390565b6106fc8061011c6000396000f3fe608060405234801561001057600080fd5b506004361061009e5760003560e01c8063b69ef8a811610066578063b69ef8a81461012e578063ead50da314610136578063f2fde38b1461013e578063f426f03a14610164578063fc0c546a146101815761009e565b806323024408146100a3578063271f88b4146100cb578063715018a6146100e85780638da5cb5b146100f0578063aa8c217c14610114575b600080fd5b6100c9600480360360208110156100b957600080fd5b50356001600160a01b0316610189565b005b6100c9600480360360208110156100e157600080fd5b5035610336565b6100c961039d565b6100f8610449565b604080516001600160a01b039092168252519081900360200190f35b61011c610458565b60408051918252519081900360200190f35b61011c61045e565b61011c6104da565b6100c96004803603602081101561015457600080fd5b50356001600160a01b03166104e0565b6100c96004803603602081101561017a57600080fd5b50356105e2565b6100f8610649565b6001600160a01b038116600090815260046020526040902054439015806101cc57506003546001600160a01b038316600090815260046020526040902054820310155b61021d576040805162461bcd60e51b815260206004820181905260248201527f4164647265737320686173206265656e2066756e64656420726563656e746c79604482015290519081900360640190fd5b60025461022861045e565b116102645760405162461bcd60e51b81526004018080602001828103825260248152602001806106836024913960400191505060405180910390fd5b6001600160a01b038083166000818152600460208181526040808420879055600154600254825163a9059cbb60e01b815294850196909652602484019590955251939094169363a9059cbb9360448084019492939192918390030190829087803b1580156102d157600080fd5b505af11580156102e5573d6000803e3d6000fd5b505050506040513d60208110156102fb57600080fd5b505060025460408051918252517f936f47201eb468366c62d02d7434bd35dc11ca20a76a628ce9909f62838cafca9181900360200190a15050565b61033e610658565b6001600160a01b031661034f610449565b6001600160a01b031614610398576040805162461bcd60e51b815260206004820181905260248201526000805160206106a7833981519152604482015290519081900360640190fd5b600255565b6103a5610658565b6001600160a01b03166103b6610449565b6001600160a01b0316146103ff576040805162461bcd60e51b815260206004820181905260248201526000805160206106a7833981519152604482015290519081900360640190fd5b600080546040516001600160a01b03909116907f8be0079c531659141344cd1fd0a4f28419497f9722a3daafe3b4186f6b6457e0908390a3600080546001600160a01b0319169055565b6000546001600160a01b031690565b60025481565b600154604080516370a0823160e01b815230600482015290516000926001600160a01b0316916370a08231916024808301926020929190829003018186803b1580156104a957600080fd5b505afa1580156104bd573d6000803e3d6000fd5b505050506040513d60208110156104d357600080fd5b5051905090565b60035481565b6104e8610658565b6001600160a01b03166104f9610449565b6001600160a01b031614610542576040805162461bcd60e51b815260206004820181905260248201526000805160206106a7833981519152604482015290519081900360640190fd5b6001600160a01b0381166105875760405162461bcd60e51b815260040180806020018281038252602681526020018061065d6026913960400191505060405180910390fd5b600080546040516001600160a01b03808516939216917f8be0079c531659141344cd1fd0a4f28419497f9722a3daafe3b4186f6b6457e091a3600080546001600160a01b0319166001600160a01b0392909216919091179055565b6105ea610658565b6001600160a01b03166105fb610449565b6001600160a01b031614610644576040805162461bcd60e51b815260206004820181905260248201526000805160206106a7833981519152604482015290519081900360640190fd5b600355565b6001546001600160a01b031681565b339056fe4f776e61626c653a206e6577206f776e657220697320746865207a65726f20616464726573734e6f7420656e6f75676820746f6b656e2066756e647320696e20746865206661756365744f776e61626c653a2063616c6c6572206973206e6f7420746865206f776e6572a2646970667358221220c4fd3b663de9426a1eaa051e47cbaee932a0913bb525b121b1c070733035282864736f6c634300060c00334661756365743a2063616e2774207365742074686520746f6b656e206164647265737320746f20746865207a65726f2061646472657373",
  "immutableReferences": {},
  "source": "// SPDX-License-Identifier: MIT\npragma solidity =0.6.12;\n\nimport \"@openzeppelin/contracts/access/Ownable.sol\";\nimport \"@openzeppelin/contracts/token/ERC20/IERC20.sol\";\n\ncontract Faucet is Ownable {\n  IERC20 public token;\n\n  uint256 public amount;\n  uint256 public frequency;\n  mapping(address => uint256) private lastBlock;\n\n  event funded(uint256 _amount);\n  \n  constructor(address _token, uint256 _amount, uint256 _frequency) public {\n    require(_token != address(0), \"Faucet: can't set the token address to the zero address\");\n    token = IERC20(_token);\n    amount = _amount;\n    frequency = _frequency;\n  }\n\n  function fund(address _to) public {\n    uint256 currentBlock = block.number;\n    require(lastBlock[_to] == 0 || currentBlock - lastBlock[_to] >= frequency, \"Address has been funded recently\");\n    require(balance() > amount, \"Not enough token funds in the faucet\");\n    lastBlock[_to] = currentBlock;\n    token.transfer(address(uint160(_to)), amount);\n    emit funded(amount);\n  }\n\n  function balance() public view returns (uint256) {\n    return token.balanceOf(address(this));\n  }\n\n  function setAmount(uint256 _amount) public onlyOwner {\n    amount = _amount;\n  }\n\n  function setFrequency(uint256 _frequency) public onlyOwner {\n    frequency = _frequency;\n  }\n}",
  "sourcePath": "/Users/healer/Documents/BLOCKCHAIN/Tool/base_node-master/contracts/Faucet.sol",
  "compiler": {
    "name": "solc",
    "version": "0.6.12+commit.27d51765.Emscripten.clang"
  },
  "schemaVersion": "3.4.3",
  "updatedAt": "2021-10-06T02:14:36.686Z",
  "networkType": "ethereum",
  "devdoc": {
    "kind": "dev",
    "methods": {
      "owner()": {
        "details": "Returns the address of the current owner."
      },
      "renounceOwnership()": {
        "details": "Leaves the contract without owner. It will not be possible to call `onlyOwner` functions anymore. Can only be called by the current owner. NOTE: Renouncing ownership will leave the contract without an owner, thereby removing any functionality that is only available to the owner."
      },
      "transferOwnership(address)": {
        "details": "Transfers ownership of the contract to a new account (`newOwner`). Can only be called by the current owner."
      }
    },
    "version": 1
  },
  "userdoc": {
    "kind": "user",
    "methods": {},
    "version": 1
  }
}